{
  "transactions": [
    {
      "hash": "0xd23b6419c5710fd7e3a6201b1c5b9ee8ba326c967500300161f5464f269dcd57",
      "transactionType": "CALL",
      "contractName": null,
      "contractAddress": "0xd631e616bcedb57571d2b574e34fc13e99e2607a",
      "function": "applyChainUpdates((uint64,bool,bytes,bytes,(bool,uint128,uint128),(bool,uint128,uint128))[])",
      "arguments": [
        "[(6898391096552792247, true, 0x00000000000000000000000098167e4ae0c0a195d2ab797af84b5ff2152fb169, 0x00000000000000000000000052f274c8eaca2f4a578daaed6e5d822ac8d21146, (false, 0, 0), (false, 0, 0))]"
      ],
      "transaction": {
        "from": "0x6fc5113b55771b884880785042e78521b8b719fa",
        "to": "0xd631e616bcedb57571d2b574e34fc13e99e2607a",
        "gas": "0x5112f",
        "value": "0x0",
        "input": "0xdb6327dc0000000000000000000000000000000000000000000000000000000000000020000000000000000000000000000000000000000000000000000000000000000100000000000000000000000000000000000000000000000000000000000000200000000000000000000000000000000000000000000000005fbc02272fbf20b7000000000000000000000000000000000000000000000000000000000000000100000000000000000000000000000000000000000000000000000000000001400000000000000000000000000000000000000000000000000000000000000180000000000000000000000000000000000000000000000000000000000000000000000000000000000000000000000000000000000000000000000000000000000000000000000000000000000000000000000000000000000000000000000000000000000000000000000000000000000000000000000000000000000000000000000000000000000000000000000000000000000000000000000000000000000000000000000000000000000000000000000000000000000000000000000000000000000000000000000000000000000000000000000000000000000000002000000000000000000000000098167e4ae0c0a195d2ab797af84b5ff2152fb169000000000000000000000000000000000000000000000000000000000000002000000000000000000000000052f274c8eaca2f4a578daaed6e5d822ac8d21146",
        "nonce": "0x16a",
        "chainId": "0xaa36a7"
      },
      "additionalContracts": [],
      "isFixedGasLimit": false
    }
  ],
  "receipts": [
    {
      "status": "0x1",
      "cumulativeGasUsed": "0xf7414f",
      "logs": [
        {
          "address": "0xd631e616bcedb57571d2b574e34fc13e99e2607a",
          "topics": [
            "0x8d340f17e19058004c20453540862a9c62778504476f6756755cb33bcd6c38c2"
          ],
          "data": "0x0000000000000000000000000000000000000000000000005fbc02272fbf20b70000000000000000000000000000000000000000000000000000000000000100000000000000000000000000000000000000000000000000000000000000000000000000000000000000000000000000000000000000000000000000000000000000000000000000000000000000000000000000000000000000000000000000000000000000000000000000000000000000000000000000000000000000000000000000000000000000000000000000000000000000000000000000000000000000000000000000000000000000000000000000000000000000000000000000000000000000000000000000000000000000000000000000000000000000002000000000000000000000000052f274c8eaca2f4a578daaed6e5d822ac8d21146",
          "blockHash": "0x0e015af6dbf1204bbe7a665e66960940d2c8b1d1a9835ab43d28182879b9444c",
          "blockNumber": "0x7fabf4",
          "transactionHash": "0xd23b6419c5710fd7e3a6201b1c5b9ee8ba326c967500300161f5464f269dcd57",
          "transactionIndex": "0x63",
          "logIndex": "0xce",
          "removed": false
        }
      ],
      "logsBloom": "0x00000000000000400000000000000000000000000000000000000000000000000000000000000000000000000000000000000000000000000004000000000000000000000000000000000000000000000000000000000000000000000000000000000000000000000000000000000000000000000000000000000000000000000000000000000000000000000000000000000000000000000000000000000000000000000000000000000000000000000000000000000000000000000000000000000000000000000100000000000000000080000000000000000000000000000000000000000000000000000000000000008000000000000100000000000000",
      "type": "0x2",
      "transactionHash": "0xd23b6419c5710fd7e3a6201b1c5b9ee8ba326c967500300161f5464f269dcd57",
      "transactionIndex": "0x63",
      "blockHash": "0x0e015af6dbf1204bbe7a665e66960940d2c8b1d1a9835ab43d28182879b9444c",
      "blockNumber": "0x7fabf4",
      "gasUsed": "0x3ab24",
      "effectiveGasPrice": "0x1a2426",
      "from": "0x6fc5113b55771b884880785042e78521b8b719fa",
      "to": "0xd631e616bcedb57571d2b574e34fc13e99e2607a",
      "contractAddress": null
    }
  ],
  "libraries": [],
  "pending": [],
  "returns": {},
  "timestamp": 1747735849,
  "chain": 11155111,
  "commit": null
}