{
  "transactions": [
    {
      "hash": "0x643864c45af06a76075e3e3fa58b0a67d07d81588e73d74475e302ddf9fd34d0",
      "transactionType": "CALL",
      "contractName": null,
      "contractAddress": "0x7db9f1556ad89a1055e2d37b4f862f55c4ec7617",
      "function": "applyChainUpdates((uint64,bool,bytes,bytes,(bool,uint128,uint128),(bool,uint128,uint128))[])",
      "arguments": [
        "[(6898391096552792247, true, 0x000000000000000000000000bb520098a0437b1a596fa927d2e77b5f721280a3, 0x000000000000000000000000f614b83bd7cd25cdf7265eb948e08cd0e78518bc, (false, 0, 0), (false, 0, 0))]"
      ],
      "transaction": {
        "from": "0x6fc5113b55771b884880785042e78521b8b719fa",
        "to": "0x7db9f1556ad89a1055e2d37b4f862f55c4ec7617",
        "gas": "0x5111e",
        "value": "0x0",
        "input": "0xdb6327dc0000000000000000000000000000000000000000000000000000000000000020000000000000000000000000000000000000000000000000000000000000000100000000000000000000000000000000000000000000000000000000000000200000000000000000000000000000000000000000000000005fbc02272fbf20b70000000000000000000000000000000000000000000000000000000000000001000000000000000000000000000000000000000000000000000000000000014000000000000000000000000000000000000000000000000000000000000001800000000000000000000000000000000000000000000000000000000000000000000000000000000000000000000000000000000000000000000000000000000000000000000000000000000000000000000000000000000000000000000000000000000000000000000000000000000000000000000000000000000000000000000000000000000000000000000000000000000000000000000000000000000000000000000000000000000000000000000000000000000000000000000000000000000000000000000000000000000000000000000000000000000000000020000000000000000000000000bb520098a0437b1a596fa927d2e77b5f721280a30000000000000000000000000000000000000000000000000000000000000020000000000000000000000000f614b83bd7cd25cdf7265eb948e08cd0e78518bc",
        "nonce": "0x178",
        "chainId": "0xaa36a7"
      },
      "additionalContracts": [],
      "isFixedGasLimit": false
    }
  ],
  "receipts": [
    {
      "status": "0x1",
      "cumulativeGasUsed": "0xf02b20",
      "logs": [
        {
          "address": "0x7db9f1556ad89a1055e2d37b4f862f55c4ec7617",
          "topics": [
            "0x8d340f17e19058004c20453540862a9c62778504476f6756755cb33bcd6c38c2"
          ],
          "data": "0x0000000000000000000000000000000000000000000000005fbc02272fbf20b700000000000000000000000000000000000000000000000000000000000001000000000000000000000000000000000000000000000000000000000000000000000000000000000000000000000000000000000000000000000000000000000000000000000000000000000000000000000000000000000000000000000000000000000000000000000000000000000000000000000000000000000000000000000000000000000000000000000000000000000000000000000000000000000000000000000000000000000000000000000000000000000000000000000000000000000000000000000000000000000000000000000000000000000000000020000000000000000000000000f614b83bd7cd25cdf7265eb948e08cd0e78518bc",
          "blockHash": "0x65f07215fcccc30e52f66ed373217e0124ae470fc76152a7a8ce40908cd4688e",
          "blockNumber": "0x7fac66",
          "transactionHash": "0x643864c45af06a76075e3e3fa58b0a67d07d81588e73d74475e302ddf9fd34d0",
          "transactionIndex": "0x6d",
          "logIndex": "0x174",
          "removed": false
        }
      ],
      "logsBloom": "0x00100000000000400000000000000000000000000000000000000000000000000000000000000000000000000000000000000000000000000004000000000000000000000000000000000000000000000000000000000000000000000000000000000000000000000000000000000000000000000000000000000000000000000000000000800000000000000000000000000000000000000000000000000000004000000000000000000000000000000000000000000000000000000000000000000000000000000000000000000000000000000000000000000000000000000000000000000000000000000000000000000000000000000100000000000000",
      "type": "0x2",
      "transactionHash": "0x643864c45af06a76075e3e3fa58b0a67d07d81588e73d74475e302ddf9fd34d0",
      "transactionIndex": "0x6d",
      "blockHash": "0x65f07215fcccc30e52f66ed373217e0124ae470fc76152a7a8ce40908cd4688e",
      "blockNumber": "0x7fac66",
      "gasUsed": "0x3ab18",
      "effectiveGasPrice": "0x160083b",
      "from": "0x6fc5113b55771b884880785042e78521b8b719fa",
      "to": "0x7db9f1556ad89a1055e2d37b4f862f55c4ec7617",
      "contractAddress": null
    }
  ],
  "libraries": [],
  "pending": [],
  "returns": {},
  "timestamp": 1747737231,
  "chain": 11155111,
  "commit": null
}