{
  "transactions": [
    {
      "hash": "0xb482c533c07bd5bbed3c378be634f86f9cae1800cc9c05e2975f433b4545f129",
      "transactionType": "CALL",
      "contractName": null,
      "contractAddress": "0x5714b75dfb85997b3525e3d7fb9c8a3606ada7e9",
      "function": "applyChainUpdates((uint64,bool,bytes,bytes,(bool,uint128,uint128),(bool,uint128,uint128))[])",
      "arguments": [
        "[(6898391096552792247, true, 0x0000000000000000000000006bfd99406f58ee3c2c353fff15295e6fe691a832, 0x0000000000000000000000000c56eda5e5b2aa87452993db706ea67ccc686369, (false, 0, 0), (false, 0, 0))]"
      ],
      "transaction": {
        "from": "0x6fc5113b55771b884880785042e78521b8b719fa",
        "to": "0x5714b75dfb85997b3525e3d7fb9c8a3606ada7e9",
        "gas": "0x5112f",
        "value": "0x0",
        "input": "0xdb6327dc0000000000000000000000000000000000000000000000000000000000000020000000000000000000000000000000000000000000000000000000000000000100000000000000000000000000000000000000000000000000000000000000200000000000000000000000000000000000000000000000005fbc02272fbf20b700000000000000000000000000000000000000000000000000000000000000010000000000000000000000000000000000000000000000000000000000000140000000000000000000000000000000000000000000000000000000000000018000000000000000000000000000000000000000000000000000000000000000000000000000000000000000000000000000000000000000000000000000000000000000000000000000000000000000000000000000000000000000000000000000000000000000000000000000000000000000000000000000000000000000000000000000000000000000000000000000000000000000000000000000000000000000000000000000000000000000000000000000000000000000000000000000000000000000000000000000000000000000000000000000000000000000200000000000000000000000006bfd99406f58ee3c2c353fff15295e6fe691a83200000000000000000000000000000000000000000000000000000000000000200000000000000000000000000c56eda5e5b2aa87452993db706ea67ccc686369",
        "nonce": "0x170",
        "chainId": "0xaa36a7"
      },
      "additionalContracts": [],
      "isFixedGasLimit": false
    }
  ],
  "receipts": [
    {
      "status": "0x1",
      "cumulativeGasUsed": "0x1dc0bc3",
      "logs": [
        {
          "address": "0x5714b75dfb85997b3525e3d7fb9c8a3606ada7e9",
          "topics": [
            "0x8d340f17e19058004c20453540862a9c62778504476f6756755cb33bcd6c38c2"
          ],
          "data": "0x0000000000000000000000000000000000000000000000005fbc02272fbf20b7000000000000000000000000000000000000000000000000000000000000010000000000000000000000000000000000000000000000000000000000000000000000000000000000000000000000000000000000000000000000000000000000000000000000000000000000000000000000000000000000000000000000000000000000000000000000000000000000000000000000000000000000000000000000000000000000000000000000000000000000000000000000000000000000000000000000000000000000000000000000000000000000000000000000000000000000000000000000000000000000000000000000000000000000000000200000000000000000000000000c56eda5e5b2aa87452993db706ea67ccc686369",
          "blockHash": "0xfdefd34152fdde72b87eb682c1dedcb1eb69ea842b90f4911bbdc1a58c1279fb",
          "blockNumber": "0x7fac29",
          "transactionHash": "0xb482c533c07bd5bbed3c378be634f86f9cae1800cc9c05e2975f433b4545f129",
          "transactionIndex": "0xd1",
          "logIndex": "0x244",
          "removed": false
        }
      ],
      "logsBloom": "0x00000000000000400000000000000000000000000000000000000000000000000000000000000000000000000000000000000000000000000004000000000000000000000000000000000000040000000000000000000000000000004000000000000000000000000000000000000000000000000000000000000000000000000000000000000000000000000000000000000000000000000000000000000000000000000000000000000000000000000000000000000000000000000000000000000000000000000000000000000000000000000000000000000000000000000000000000000000000000000000000000000000000000000100000000000008",
      "type": "0x2",
      "transactionHash": "0xb482c533c07bd5bbed3c378be634f86f9cae1800cc9c05e2975f433b4545f129",
      "transactionIndex": "0xd1",
      "blockHash": "0xfdefd34152fdde72b87eb682c1dedcb1eb69ea842b90f4911bbdc1a58c1279fb",
      "blockNumber": "0x7fac29",
      "gasUsed": "0x3ab24",
      "effectiveGasPrice": "0x2ec29c",
      "from": "0x6fc5113b55771b884880785042e78521b8b719fa",
      "to": "0x5714b75dfb85997b3525e3d7fb9c8a3606ada7e9",
      "contractAddress": null
    }
  ],
  "libraries": [],
  "pending": [],
  "returns": {},
  "timestamp": 1747736487,
  "chain": 11155111,
  "commit": null
}