{
  "transactions": [
    {
      "hash": "0x67a4126a7360763a25385ec79aecc36935fb283833694ec86dbaeaa3ea94f6ec",
      "transactionType": "CREATE",
      "contractName": "Vault",
      "contractAddress": "0x9d7155a6c52b778a1901d4497266fceba0f5d4e4",
      "function": null,
      "arguments": [
        "0x27B97e5461a955FFF0F328e888B795Ee59BEA4d5"
      ],
      "transaction": {
        "from": "0x6fc5113b55771b884880785042e78521b8b719fa",
        "gas": "0x57796",
        "value": "0x0",
        "input": "0x60a03461007e57601f61049638819003918201601f19168301916001600160401b038311848410176100825780849260209460405283398101031261007e57516001600160a01b038116810361007e576080526040516103ff9081610097823960805181818160740152818161019f0152818161023c015261035b0152f35b5f80fd5b634e487b7160e01b5f52604160045260245ffdfe6080604081815260049081361015610021575b505050361561001f575f80fd5b005b5f925f3560e01c90816376366e001461033e57508063d0e30db0146102215763db006a7503610012573461021d5760209081600319360112610219578235925f198414610184575b846001600160a01b037f000000000000000000000000000000000000000000000000000000000000000016803b15610180578180916044865180948193632770a7eb60e21b835233898401528b60248401525af180156101765761015e575b5080808087335af13d15610159573d67ffffffffffffffff8111610146578351906100fc601f8201601f19168701836103a7565b815286853d92013e5b156101385750907f222838db2794d11532d940e8dec38ae307ed0b63cd97c233322e221f998767a691519283523392a280f35b90516303eff1c560e31b8152fd5b634e487b7160e01b875260418352602487fd5b610105565b6101679061037f565b61017257845f6100c8565b8480fd5b84513d84823e3d90fd5b5080fd5b81516370a0823160e01b8152338183015290935082816024817f00000000000000000000000000000000000000000000000000000000000000006001600160a01b03165afa90811561020f5785916101de575b5092610069565b90508281813d8311610208575b6101f581836103a7565b8101031261020457515f6101d7565b5f80fd5b503d6101eb565b82513d87823e3d90fd5b8380fd5b8280fd5b50905f36600319011261020457815163292bdab360e11b81527f00000000000000000000000000000000000000000000000000000000000000006001600160a01b031691906020818381865afa908115610334575f91610302575b50823b156102045760645f928386519586948593630ab714fb60e11b8552339085015234602485015260448401525af180156102f8576102e5575b50513481527fe1fffcc4923d04b559f4d29a8bfc6cda04eb5b0d3c460751c2402c5c5cc9109c60203392a280f35b6102f091925061037f565b5f905f6102b7565b82513d5f823e3d90fd5b90506020813d60201161032c575b8161031d602093836103a7565b8101031261020457515f61027c565b3d9150610310565b84513d5f823e3d90fd5b34610204575f366003190112610204576020906001600160a01b037f0000000000000000000000000000000000000000000000000000000000000000168152f35b67ffffffffffffffff811161039357604052565b634e487b7160e01b5f52604160045260245ffd5b90601f8019910116810190811067ffffffffffffffff8211176103935760405256fea264697066735822122054b540086377c8c85760d95f760b147a865edd5365c766f85543c22fc36a102164736f6c6343000818003300000000000000000000000027b97e5461a955fff0f328e888b795ee59bea4d5",
        "nonce": "0x168",
        "chainId": "0xaa36a7"
      },
      "additionalContracts": [],
      "isFixedGasLimit": false
    },
    {
      "hash": "0xc97ba0c24d52907e533f36f29c50a9aad0d55c2b78fe8c094ec9c4286b7441fb",
      "transactionType": "CALL",
      "contractName": null,
      "contractAddress": "0x27b97e5461a955fff0f328e888b795ee59bea4d5",
      "function": "grantMintAndBurnRole(address)",
      "arguments": [
        "0x9D7155A6c52B778A1901d4497266fcebA0f5d4e4"
      ],
      "transaction": {
        "from": "0x6fc5113b55771b884880785042e78521b8b719fa",
        "to": "0x27b97e5461a955fff0f328e888b795ee59bea4d5",
        "gas": "0x105c7",
        "value": "0x0",
        "input": "0x7cfb3d710000000000000000000000009d7155a6c52b778a1901d4497266fceba0f5d4e4",
        "nonce": "0x169",
        "chainId": "0xaa36a7"
      },
      "additionalContracts": [],
      "isFixedGasLimit": false
    }
  ],
  "receipts": [
    {
      "status": "0x1",
      "cumulativeGasUsed": "0xc9fb66",
      "logs": [],
      "logsBloom": "0x00000000000000000000000000000000000000000000000000000000000000000000000000000000000000000000000000000000000000000000000000000000000000000000000000000000000000000000000000000000000000000000000000000000000000000000000000000000000000000000000000000000000000000000000000000000000000000000000000000000000000000000000000000000000000000000000000000000000000000000000000000000000000000000000000000000000000000000000000000000000000000000000000000000000000000000000000000000000000000000000000000000000000000000000000000000",
      "type": "0x2",
      "transactionHash": "0x67a4126a7360763a25385ec79aecc36935fb283833694ec86dbaeaa3ea94f6ec",
      "transactionIndex": "0x61",
      "blockHash": "0x07df747953b6c0375263ae345a316a51e3cd0e13e925328f40bf32386dd27145",
      "blockNumber": "0x7fabf0",
      "gasUsed": "0x4349b",
      "effectiveGasPrice": "0x1b37d3",
      "from": "0x6fc5113b55771b884880785042e78521b8b719fa",
      "to": null,
      "contractAddress": "0x9d7155a6c52b778a1901d4497266fceba0f5d4e4"
    },
    {
      "status": "0x1",
      "cumulativeGasUsed": "0xcb39ea",
      "logs": [
        {
          "address": "0x27b97e5461a955fff0f328e888b795ee59bea4d5",
          "topics": [
            "0x2f8788117e7eff1d82e926ec794901d17c78024a50270940304540a733656f0d",
            "0x7429555b03aa5cf08cc5fc0890c97db295c9cec5e6bb1544bcd7fd1430dae3e2",
            "0x0000000000000000000000009d7155a6c52b778a1901d4497266fceba0f5d4e4",
            "0x0000000000000000000000006fc5113b55771b884880785042e78521b8b719fa"
          ],
          "data": "0x",
          "blockHash": "0x07df747953b6c0375263ae345a316a51e3cd0e13e925328f40bf32386dd27145",
          "blockNumber": "0x7fabf0",
          "transactionHash": "0xc97ba0c24d52907e533f36f29c50a9aad0d55c2b78fe8c094ec9c4286b7441fb",
          "transactionIndex": "0x63",
          "logIndex": "0xca",
          "removed": false
        }
      ],
      "logsBloom": "0x00000004000000000000000000000000400000000000000000000000000000000000000000002040000000000000000000000000000000000000000000010000000000000000000000000000000000000000000000000000002000000000008000000000000000000000000000000000000000000000000000000000000000000000000000002000000000000000000000000000000000000000000000000000000800000000000000000000000000000000080000000044001000000000000000000000000000000000000000020000000000000000000100000000000000000000000000000000000000000000000000000000000000000000000000000000",
      "type": "0x2",
      "transactionHash": "0xc97ba0c24d52907e533f36f29c50a9aad0d55c2b78fe8c094ec9c4286b7441fb",
      "transactionIndex": "0x63",
      "blockHash": "0x07df747953b6c0375263ae345a316a51e3cd0e13e925328f40bf32386dd27145",
      "blockNumber": "0x7fabf0",
      "gasUsed": "0xbd86",
      "effectiveGasPrice": "0x1b37d3",
      "from": "0x6fc5113b55771b884880785042e78521b8b719fa",
      "to": "0x27b97e5461a955fff0f328e888b795ee59bea4d5",
      "contractAddress": null
    }
  ],
  "libraries": [],
  "pending": [],
  "returns": {
    "vault": {
      "internal_type": "contract Vault",
      "value": "0x9D7155A6c52B778A1901d4497266fcebA0f5d4e4"
    }
  },
  "timestamp": 1747735802,
  "chain": 11155111,
  "commit": null
}